{
  "contractName": "Exchange",
  "abi": [
    {
      "inputs": [
        {
          "internalType": "address",
          "name": "eurcAddress",
          "type": "address"
        }
      ],
      "stateMutability": "nonpayable",
      "type": "constructor"
    },
    {
      "inputs": [],
      "name": "eurc",
      "outputs": [
        {
          "internalType": "contract IERC20",
          "name": "",
          "type": "address"
        }
      ],
      "stateMutability": "view",
      "type": "function"
    },
    {
      "inputs": [
        {
          "internalType": "address",
          "name": "fromToken",
          "type": "address"
        },
        {
          "internalType": "uint256",
          "name": "amount",
          "type": "uint256"
        }
      ],
      "name": "exchangeToEURC",
      "outputs": [],
      "stateMutability": "nonpayable",
      "type": "function"
    },
    {
      "inputs": [
        {
          "internalType": "address",
          "name": "toToken",
          "type": "address"
        },
        {
          "internalType": "uint256",
          "name": "amount",
          "type": "uint256"
        }
      ],
      "name": "exchangeFromEURC",
      "outputs": [],
      "stateMutability": "nonpayable",
      "type": "function"
    }
  ],
  "bytecode": "0x608060405234801561000f575f80fd5b50604051610655380380610655833981810160405281019061003191906100d4565b805f806101000a81548173ffffffffffffffffffffffffffffffffffffffff021916908373ffffffffffffffffffffffffffffffffffffffff160217905550506100ff565b5f80fd5b5f73ffffffffffffffffffffffffffffffffffffffff82169050919050565b5f6100a38261007a565b9050919050565b6100b381610099565b81146100bd575f80fd5b50565b5f815190506100ce816100aa565b92915050565b5f602082840312156100e9576100e8610076565b5b5f6100f6848285016100c0565b91505092915050565b6105498061010c5f395ff3fe608060405234801561000f575f80fd5b506004361061003f575f3560e01c806308d781ec1461004357806312d547c7146100615780634ef6f11e1461007d575b5f80fd5b61004b610099565b6040516100589190610370565b60405180910390f35b61007b600480360381019061007691906103fb565b6100bc565b005b610097600480360381019061009291906103fb565b6101d9565b005b5f8054906101000a900473ffffffffffffffffffffffffffffffffffffffff1681565b8173ffffffffffffffffffffffffffffffffffffffff166323b872dd3330846040518463ffffffff1660e01b81526004016100f993929190610457565b6020604051808303815f875af1158015610115573d5f803e3d5ffd5b505050506040513d601f19601f8201168201806040525081019061013991906104c1565b505f8054906101000a900473ffffffffffffffffffffffffffffffffffffffff1673ffffffffffffffffffffffffffffffffffffffff1663a9059cbb33836040518363ffffffff1660e01b81526004016101949291906104ec565b6020604051808303815f875af11580156101b0573d5f803e3d5ffd5b505050506040513d601f19601f820116820180604052508101906101d491906104c1565b505050565b5f8054906101000a900473ffffffffffffffffffffffffffffffffffffffff1673ffffffffffffffffffffffffffffffffffffffff166323b872dd3330846040518463ffffffff1660e01b815260040161023593929190610457565b6020604051808303815f875af1158015610251573d5f803e3d5ffd5b505050506040513d601f19601f8201168201806040525081019061027591906104c1565b508173ffffffffffffffffffffffffffffffffffffffff1663a9059cbb33836040518363ffffffff1660e01b81526004016102b19291906104ec565b6020604051808303815f875af11580156102cd573d5f803e3d5ffd5b505050506040513d601f19601f820116820180604052508101906102f191906104c1565b505050565b5f73ffffffffffffffffffffffffffffffffffffffff82169050919050565b5f819050919050565b5f61033861033361032e846102f6565b610315565b6102f6565b9050919050565b5f6103498261031e565b9050919050565b5f61035a8261033f565b9050919050565b61036a81610350565b82525050565b5f6020820190506103835f830184610361565b92915050565b5f80fd5b5f610397826102f6565b9050919050565b6103a78161038d565b81146103b1575f80fd5b50565b5f813590506103c28161039e565b92915050565b5f819050919050565b6103da816103c8565b81146103e4575f80fd5b50565b5f813590506103f5816103d1565b92915050565b5f806040838503121561041157610410610389565b5b5f61041e858286016103b4565b925050602061042f858286016103e7565b9150509250929050565b6104428161038d565b82525050565b610451816103c8565b82525050565b5f60608201905061046a5f830186610439565b6104776020830185610439565b6104846040830184610448565b949350505050565b5f8115159050919050565b6104a08161048c565b81146104aa575f80fd5b50565b5f815190506104bb81610497565b92915050565b5f602082840312156104d6576104d5610389565b5b5f6104e3848285016104ad565b91505092915050565b5f6040820190506104ff5f830185610439565b61050c6020830184610448565b939250505056fea2646970667358221220c20143fcab125d9997ac48c3e91dc43229bfb2eb3e0c3d268283cd657e8cd9f564736f6c63430008140033",
  "immutableReferences": {},
  "source": "// contracts/Exchange.sol\npragma solidity ^0.8.0;\n\nimport \"@openzeppelin/contracts/token/ERC20/IERC20.sol\";\n\ncontract Exchange {\n    IERC20 public eurc;\n\n    constructor(address eurcAddress) {\n        eurc = IERC20(eurcAddress);\n    }\n\n    function exchangeToEURC(address fromToken, uint256 amount) external {\n        IERC20(fromToken).transferFrom(msg.sender, address(this), amount);\n        eurc.transfer(msg.sender, amount); // Simplified exchange logic\n    }\n\n    function exchangeFromEURC(address toToken, uint256 amount) external {\n        eurc.transferFrom(msg.sender, address(this), amount);\n        IERC20(toToken).transfer(msg.sender, amount); // Simplified exchange logic\n    }\n}",
  "sourcePath": "/home/xiayun/Studies/#7/ISIS 3007 - Blockchain project/git/interbank-blockchain/truffle/contracts/Exchange.sol",
  "compiler": {
    "name": "solc",
    "version": "0.8.20+commit.a1b79de6.Emscripten.clang"
  },
  "schemaVersion": "3.4.16",
  "updatedAt": "2024-11-20T14:22:38.887Z",
  "devdoc": {
    "kind": "dev",
    "methods": {},
    "version": 1
  },
  "userdoc": {
    "kind": "user",
    "methods": {},
    "version": 1
  }
}