{
  "contractName": "AccountRules",
  "abi": [
    {
      "inputs": [],
      "stateMutability": "nonpayable",
      "type": "constructor"
    },
    {
      "anonymous": false,
      "inputs": [
        {
          "indexed": false,
          "internalType": "address",
          "name": "account",
          "type": "address"
        }
      ],
      "name": "AccountAdded",
      "type": "event"
    },
    {
      "anonymous": false,
      "inputs": [
        {
          "indexed": false,
          "internalType": "address",
          "name": "account",
          "type": "address"
        }
      ],
      "name": "AccountRemoved",
      "type": "event"
    },
    {
      "inputs": [],
      "name": "adminAccount",
      "outputs": [
        {
          "internalType": "address",
          "name": "",
          "type": "address"
        }
      ],
      "stateMutability": "view",
      "type": "function",
      "constant": true
    },
    {
      "inputs": [
        {
          "internalType": "address",
          "name": "",
          "type": "address"
        }
      ],
      "name": "allowlist",
      "outputs": [
        {
          "internalType": "bool",
          "name": "",
          "type": "bool"
        }
      ],
      "stateMutability": "view",
      "type": "function",
      "constant": true
    },
    {
      "inputs": [
        {
          "internalType": "address",
          "name": "account",
          "type": "address"
        }
      ],
      "name": "addAccount",
      "outputs": [],
      "stateMutability": "nonpayable",
      "type": "function"
    },
    {
      "inputs": [
        {
          "internalType": "address",
          "name": "account",
          "type": "address"
        }
      ],
      "name": "removeAccount",
      "outputs": [],
      "stateMutability": "nonpayable",
      "type": "function"
    },
    {
      "inputs": [
        {
          "internalType": "address",
          "name": "account",
          "type": "address"
        }
      ],
      "name": "accountPermitted",
      "outputs": [
        {
          "internalType": "bool",
          "name": "",
          "type": "bool"
        }
      ],
      "stateMutability": "view",
      "type": "function",
      "constant": true
    }
  ],
  "bytecode": "0x608060405234801561001057600080fd5b50336000806101000a81548173ffffffffffffffffffffffffffffffffffffffff021916908373ffffffffffffffffffffffffffffffffffffffff16021790555060018060003373ffffffffffffffffffffffffffffffffffffffff1673ffffffffffffffffffffffffffffffffffffffff16815260200190815260200160002060006101000a81548160ff021916908315150217905550610867806100b76000396000f3fe608060405234801561001057600080fd5b50600436106100575760003560e01c80630f68f0b31461005c578063a7cd52cb1461008c578063c26e9118146100bc578063c4740a95146100da578063e89b0e1e146100f6575b600080fd5b610076600480360381019061007191906105a8565b610112565b6040516100839190610730565b60405180910390f35b6100a660048036038101906100a191906105a8565b610168565b6040516100b39190610730565b60405180910390f35b6100c4610188565b6040516100d19190610715565b60405180910390f35b6100f460048036038101906100ef91906105a8565b6101ac565b005b610110600480360381019061010b91906105a8565b6103e7565b005b6000600160008373ffffffffffffffffffffffffffffffffffffffff1673ffffffffffffffffffffffffffffffffffffffff16815260200190815260200160002060009054906101000a900460ff169050919050565b60016020528060005260406000206000915054906101000a900460ff1681565b60008054906101000a900473ffffffffffffffffffffffffffffffffffffffff1681565b60008054906101000a900473ffffffffffffffffffffffffffffffffffffffff1673ffffffffffffffffffffffffffffffffffffffff163373ffffffffffffffffffffffffffffffffffffffff161461023a576040517f08c379a00000000000000000000000000000000000000000000000000000000081526004016102319061076b565b60405180910390fd5b600160008273ffffffffffffffffffffffffffffffffffffffff1673ffffffffffffffffffffffffffffffffffffffff16815260200190815260200160002060009054906101000a900460ff166102c6576040517f08c379a00000000000000000000000000000000000000000000000000000000081526004016102bd9061074b565b60405180910390fd5b60008054906101000a900473ffffffffffffffffffffffffffffffffffffffff1673ffffffffffffffffffffffffffffffffffffffff168173ffffffffffffffffffffffffffffffffffffffff161415610355576040517f08c379a000000000000000000000000000000000000000000000000000000000815260040161034c906107ab565b60405180910390fd5b6000600160008373ffffffffffffffffffffffffffffffffffffffff1673ffffffffffffffffffffffffffffffffffffffff16815260200190815260200160002060006101000a81548160ff0219169083151502179055507fbf2e373b8263f701e10efcac80ea442afcb29c6852b3a42b0b46cc8edaaf54a7816040516103dc9190610715565b60405180910390a150565b60008054906101000a900473ffffffffffffffffffffffffffffffffffffffff1673ffffffffffffffffffffffffffffffffffffffff163373ffffffffffffffffffffffffffffffffffffffff1614610475576040517f08c379a000000000000000000000000000000000000000000000000000000000815260040161046c9061076b565b60405180910390fd5b600160008273ffffffffffffffffffffffffffffffffffffffff1673ffffffffffffffffffffffffffffffffffffffff16815260200190815260200160002060009054906101000a900460ff1615610502576040517f08c379a00000000000000000000000000000000000000000000000000000000081526004016104f99061078b565b60405180910390fd5b60018060008373ffffffffffffffffffffffffffffffffffffffff1673ffffffffffffffffffffffffffffffffffffffff16815260200190815260200160002060006101000a81548160ff0219169083151502179055507f8f42195a0bbfa58954be4349deb9efc38bdb9c298e529f705f8bc1e38bce0399816040516105889190610715565b60405180910390a150565b6000813590506105a28161081a565b92915050565b6000602082840312156105ba57600080fd5b60006105c884828501610593565b91505092915050565b6105da816107dc565b82525050565b6105e9816107ee565b82525050565b60006105fc6016836107cb565b91507f4163636f756e7420646f6573206e6f74206578697374000000000000000000006000830152602082019050919050565b600061063c6022836107cb565b91507f4f6e6c792061646d696e2063616e20706572666f726d2074686973206163746960008301527f6f6e0000000000000000000000000000000000000000000000000000000000006020830152604082019050919050565b60006106a26016836107cb565b91507f4163636f756e7420616c726561647920657869737473000000000000000000006000830152602082019050919050565b60006106e2601b836107cb565b91507f43616e6e6f742072656d6f76652061646d696e206163636f756e7400000000006000830152602082019050919050565b600060208201905061072a60008301846105d1565b92915050565b600060208201905061074560008301846105e0565b92915050565b60006020820190508181036000830152610764816105ef565b9050919050565b600060208201905081810360008301526107848161062f565b9050919050565b600060208201905081810360008301526107a481610695565b9050919050565b600060208201905081810360008301526107c4816106d5565b9050919050565b600082825260208201905092915050565b60006107e7826107fa565b9050919050565b60008115159050919050565b600073ffffffffffffffffffffffffffffffffffffffff82169050919050565b610823816107dc565b811461082e57600080fd5b5056fea2646970667358221220cf397a94b2c79eb9e4312012a8a2db37326e3314cac9a5ba93a3f529a36f187964736f6c63430008000033",
  "immutableReferences": {},
  "source": "\n// SPDX-License-Identifier: Apache-2.0\npragma solidity ^0.8.0;\n\ncontract AccountRules {\n    address public adminAccount;\n    mapping(address => bool) public allowlist;\n    \n    event AccountAdded(address account);\n    event AccountRemoved(address account);\n    \n    constructor() {\n        adminAccount = msg.sender;\n        // Add the deployer to the allowlist\n        allowlist[msg.sender] = true;\n    }\n    \n    modifier onlyAdmin() {\n        require(msg.sender == adminAccount, \"Only admin can perform this action\");\n        _;\n    }\n    \n    function addAccount(address account) external onlyAdmin {\n        require(!allowlist[account], \"Account already exists\");\n        allowlist[account] = true;\n        emit AccountAdded(account);\n    }\n    \n    function removeAccount(address account) external onlyAdmin {\n        require(allowlist[account], \"Account does not exist\");\n        require(account != adminAccount, \"Cannot remove admin account\");\n        allowlist[account] = false;\n        emit AccountRemoved(account);\n    }\n    \n    function accountPermitted(address account) external view returns (bool) {\n        return allowlist[account];\n    }\n}\n",
  "sourcePath": "/home/xiayun/Studies/#7/ISIS 3007 - Blockchain project/git/interbank-blockchain/truffle/contracts/AccountRules.sol",
  "compiler": {
    "name": "solc",
    "version": "0.8.0+commit.c7dfd78e.Emscripten.clang"
  },
  "schemaVersion": "3.4.16",
  "updatedAt": "2024-11-20T18:09:34.078Z",
  "networkType": "ethereum",
  "devdoc": {
    "kind": "dev",
    "methods": {},
    "version": 1
  },
  "userdoc": {
    "kind": "user",
    "methods": {},
    "version": 1
  }
}